{
    "_format": "hh-sol-artifact-1",
    "contractName": "NodeElection",
    "sourceName": "contracts/Election.sol",
    "abi": [
        {
            "anonymous": false,
            "inputs": [
                {
                    "indexed": true,
                    "internalType": "bytes32",
                    "name": "node",
                    "type": "bytes32"
                }
            ],
            "name": "NodeVoted",
            "type": "event"
        },
        {
            "inputs": [],
            "name": "getTotalVoteCount",
            "outputs": [
                {
                    "internalType": "uint256",
                    "name": "",
                    "type": "uint256"
                }
            ],
            "stateMutability": "view",
            "type": "function"
        },
        {
            "inputs": [
                {
                    "internalType": "bytes32",
                    "name": "nodeId",
                    "type": "bytes32"
                }
            ],
            "name": "getVoteCount",
            "outputs": [
                {
                    "internalType": "uint256",
                    "name": "",
                    "type": "uint256"
                }
            ],
            "stateMutability": "view",
            "type": "function"
        },
        {
            "inputs": [
                {
                    "internalType": "uint256",
                    "name": "",
                    "type": "uint256"
                }
            ],
            "name": "nodes",
            "outputs": [
                {
                    "internalType": "bytes32",
                    "name": "",
                    "type": "bytes32"
                }
            ],
            "stateMutability": "view",
            "type": "function"
        },
        {
            "inputs": [
                {
                    "internalType": "bytes32",
                    "name": "nodeId",
                    "type": "bytes32"
                }
            ],
            "name": "registerNode",
            "outputs": [],
            "stateMutability": "nonpayable",
            "type": "function"
        },
        {
            "inputs": [
                {
                    "internalType": "bytes32",
                    "name": "nodeId",
                    "type": "bytes32"
                }
            ],
            "name": "vote",
            "outputs": [],
            "stateMutability": "nonpayable",
            "type": "function"
        },
        {
            "inputs": [
                {
                    "internalType": "bytes32",
                    "name": "",
                    "type": "bytes32"
                }
            ],
            "name": "votes",
            "outputs": [
                {
                    "internalType": "uint256",
                    "name": "",
                    "type": "uint256"
                }
            ],
            "stateMutability": "view",
            "type": "function"
        }
    ],
    "bytecode": "0x608060405234801561001057600080fd5b506104c8806100206000396000f3fe608060405234801561001057600080fd5b50600436106100625760003560e01c80631c53c28014610067578063288c72e8146100975780632b38cd96146100b5578063a1695993146100e5578063a5bee12e14610115578063a69beaba14610131575b600080fd5b610081600480360381019061007c91906102d4565b61014d565b60405161008e919061031a565b60405180910390f35b61009f610171565b6040516100ac9190610344565b60405180910390f35b6100cf60048036038101906100ca919061038b565b6101e1565b6040516100dc9190610344565b60405180910390f35b6100ff60048036038101906100fa919061038b565b6101f9565b60405161010c9190610344565b60405180910390f35b61012f600480360381019061012a919061038b565b610215565b005b61014b6004803603810190610146919061038b565b610241565b005b6001818154811061015d57600080fd5b906000526020600020016000915090505481565b6000806000905060005b6001805490508110156101d9576000806001838154811061019f5761019e6103b8565b5b9060005260206000200154815260200190815260200160002054826101c49190610416565b915080806101d19061044a565b91505061017b565b508091505090565b60006020528060005260406000206000915090505481565b6000806000838152602001908152602001600020549050919050565b600181908060018154018082558091505060019003906000526020600020016000909190919091505550565b60008082815260200190815260200160002060008154809291906102649061044a565b9190505550807f18cb20fea421d6c9a1b812142829b1ef4532ce68358e0d740fd8a2a0a3bb525e60405160405180910390a250565b600080fd5b6000819050919050565b6102b18161029e565b81146102bc57600080fd5b50565b6000813590506102ce816102a8565b92915050565b6000602082840312156102ea576102e9610299565b5b60006102f8848285016102bf565b91505092915050565b6000819050919050565b61031481610301565b82525050565b600060208201905061032f600083018461030b565b92915050565b61033e8161029e565b82525050565b60006020820190506103596000830184610335565b92915050565b61036881610301565b811461037357600080fd5b50565b6000813590506103858161035f565b92915050565b6000602082840312156103a1576103a0610299565b5b60006103af84828501610376565b91505092915050565b7f4e487b7100000000000000000000000000000000000000000000000000000000600052603260045260246000fd5b7f4e487b7100000000000000000000000000000000000000000000000000000000600052601160045260246000fd5b60006104218261029e565b915061042c8361029e565b9250828201905080821115610444576104436103e7565b5b92915050565b60006104558261029e565b91507fffffffffffffffffffffffffffffffffffffffffffffffffffffffffffffffff8203610487576104866103e7565b5b60018201905091905056fea2646970667358221220024ed1376aa7e50718273331b4ca96dfc3491a92dcee35d33fa62f6ff30727fc64736f6c63430008110033",
    "linkReferences": {},
    "deployedLinkReferences": {}
}