{
  "_format": "hh-sol-artifact-1",
  "contractName": "SponsorWhitelistControl",
  "sourceName": "contracts/SponsorWhitelistControl.sol",
  "abi": [
    {
      "inputs": [
        {
          "internalType": "address[]",
          "name": "",
          "type": "address[]"
        }
      ],
      "name": "addPrivilege",
      "outputs": [],
      "stateMutability": "nonpayable",
      "type": "function"
    },
    {
      "inputs": [
        {
          "internalType": "address",
          "name": "contractAddr",
          "type": "address"
        }
      ],
      "name": "getSponsorForGas",
      "outputs": [
        {
          "internalType": "address",
          "name": "",
          "type": "address"
        }
      ],
      "stateMutability": "view",
      "type": "function"
    },
    {
      "inputs": [
        {
          "internalType": "address",
          "name": "contractAddr",
          "type": "address"
        }
      ],
      "name": "getSponsoredBalanceForGas",
      "outputs": [
        {
          "internalType": "uint256",
          "name": "",
          "type": "uint256"
        }
      ],
      "stateMutability": "view",
      "type": "function"
    },
    {
      "inputs": [
        {
          "internalType": "address",
          "name": "contractAddr",
          "type": "address"
        }
      ],
      "name": "getSponsoredGasFeeUpperBound",
      "outputs": [
        {
          "internalType": "uint256",
          "name": "",
          "type": "uint256"
        }
      ],
      "stateMutability": "view",
      "type": "function"
    },
    {
      "inputs": [
        {
          "internalType": "address",
          "name": "contractAddr",
          "type": "address"
        }
      ],
      "name": "isAllWhitelisted",
      "outputs": [
        {
          "internalType": "bool",
          "name": "",
          "type": "bool"
        }
      ],
      "stateMutability": "view",
      "type": "function"
    },
    {
      "inputs": [
        {
          "internalType": "address",
          "name": "contractAddr",
          "type": "address"
        },
        {
          "internalType": "address",
          "name": "user",
          "type": "address"
        }
      ],
      "name": "isWhitelisted",
      "outputs": [
        {
          "internalType": "bool",
          "name": "",
          "type": "bool"
        }
      ],
      "stateMutability": "view",
      "type": "function"
    },
    {
      "inputs": [
        {
          "internalType": "address[]",
          "name": "",
          "type": "address[]"
        }
      ],
      "name": "removePrivilege",
      "outputs": [],
      "stateMutability": "nonpayable",
      "type": "function"
    },
    {
      "inputs": [
        {
          "internalType": "address",
          "name": "contractAddr",
          "type": "address"
        },
        {
          "internalType": "uint256",
          "name": "upperBound",
          "type": "uint256"
        }
      ],
      "name": "setSponsorForGas",
      "outputs": [],
      "stateMutability": "payable",
      "type": "function"
    }
  ],
  "bytecode": "0x608060405234801561001057600080fd5b50610604806100206000396000f3fe60806040526004361061007b5760003560e01c8063b3b28fac1161004e578063b3b28fac1461013f578063b6b352721461017c578063d2932db6146101b9578063d665f9dd146101e25761007b565b806310128d3e1461008057806333a1af31146100a95780633e3e6428146100e657806379b47faa14610102575b600080fd5b34801561008c57600080fd5b506100a760048036038101906100a29190610418565b61021f565b005b3480156100b557600080fd5b506100d060048036038101906100cb9190610461565b610222565b6040516100dd919061049d565b60405180910390f35b61010060048036038101906100fb91906104ee565b610229565b005b34801561010e57600080fd5b5061012960048036038101906101249190610461565b61022d565b6040516101369190610549565b60405180910390f35b34801561014b57600080fd5b5061016660048036038101906101619190610461565b610234565b6040516101739190610573565b60405180910390f35b34801561018857600080fd5b506101a3600480360381019061019e919061058e565b61023b565b6040516101b09190610549565b60405180910390f35b3480156101c557600080fd5b506101e060048036038101906101db9190610418565b610243565b005b3480156101ee57600080fd5b5061020960048036038101906102049190610461565b610246565b6040516102169190610573565b60405180910390f35b50565b6000919050565b5050565b6000919050565b6000919050565b600092915050565b50565b6000919050565b6000604051905090565b600080fd5b600080fd5b600080fd5b6000601f19601f8301169050919050565b7f4e487b7100000000000000000000000000000000000000000000000000000000600052604160045260246000fd5b6102af82610266565b810181811067ffffffffffffffff821117156102ce576102cd610277565b5b80604052505050565b60006102e161024d565b90506102ed82826102a6565b919050565b600067ffffffffffffffff82111561030d5761030c610277565b5b602082029050602081019050919050565b600080fd5b600073ffffffffffffffffffffffffffffffffffffffff82169050919050565b600061034e82610323565b9050919050565b61035e81610343565b811461036957600080fd5b50565b60008135905061037b81610355565b92915050565b600061039461038f846102f2565b6102d7565b905080838252602082019050602084028301858111156103b7576103b661031e565b5b835b818110156103e057806103cc888261036c565b8452602084019350506020810190506103b9565b5050509392505050565b600082601f8301126103ff576103fe610261565b5b813561040f848260208601610381565b91505092915050565b60006020828403121561042e5761042d610257565b5b600082013567ffffffffffffffff81111561044c5761044b61025c565b5b610458848285016103ea565b91505092915050565b60006020828403121561047757610476610257565b5b60006104858482850161036c565b91505092915050565b61049781610343565b82525050565b60006020820190506104b2600083018461048e565b92915050565b6000819050919050565b6104cb816104b8565b81146104d657600080fd5b50565b6000813590506104e8816104c2565b92915050565b6000806040838503121561050557610504610257565b5b60006105138582860161036c565b9250506020610524858286016104d9565b9150509250929050565b60008115159050919050565b6105438161052e565b82525050565b600060208201905061055e600083018461053a565b92915050565b61056d816104b8565b82525050565b60006020820190506105886000830184610564565b92915050565b600080604083850312156105a5576105a4610257565b5b60006105b38582860161036c565b92505060206105c48582860161036c565b915050925092905056fea2646970667358221220ce653dafe48943ee691b3733dd1f18012475589ceb2ba78d1d52dda24972cde164736f6c63430008110033",
  "linkReferences": {},
  "deployedLinkReferences": {}
}